{
  "contractName": "CrowdFunding",
  "abi": [
    {
      "inputs": [
        {
          "internalType": "uint256",
          "name": "_goal",
          "type": "uint256"
        },
        {
          "internalType": "uint256",
          "name": "_deadline",
          "type": "uint256"
        }
      ],
      "stateMutability": "nonpayable",
      "type": "constructor"
    },
    {
      "anonymous": false,
      "inputs": [
        {
          "indexed": false,
          "internalType": "address",
          "name": "_sender",
          "type": "address"
        },
        {
          "indexed": false,
          "internalType": "uint256",
          "name": "_value",
          "type": "uint256"
        }
      ],
      "name": "ContributeEvent",
      "type": "event"
    },
    {
      "anonymous": false,
      "inputs": [
        {
          "indexed": false,
          "internalType": "string",
          "name": "_description",
          "type": "string"
        },
        {
          "indexed": false,
          "internalType": "address",
          "name": "_recipient",
          "type": "address"
        },
        {
          "indexed": false,
          "internalType": "uint256",
          "name": "_value",
          "type": "uint256"
        }
      ],
      "name": "CreateRequestEvent",
      "type": "event"
    },
    {
      "anonymous": false,
      "inputs": [
        {
          "indexed": false,
          "internalType": "address",
          "name": "_recipient",
          "type": "address"
        },
        {
          "indexed": false,
          "internalType": "uint256",
          "name": "_value",
          "type": "uint256"
        }
      ],
      "name": "MakePaymentEvent",
      "type": "event"
    },
    {
      "inputs": [],
      "name": "admin",
      "outputs": [
        {
          "internalType": "address",
          "name": "",
          "type": "address"
        }
      ],
      "stateMutability": "view",
      "type": "function"
    },
    {
      "inputs": [
        {
          "internalType": "address",
          "name": "",
          "type": "address"
        }
      ],
      "name": "contributors",
      "outputs": [
        {
          "internalType": "uint256",
          "name": "",
          "type": "uint256"
        }
      ],
      "stateMutability": "view",
      "type": "function"
    },
    {
      "inputs": [],
      "name": "deadline",
      "outputs": [
        {
          "internalType": "uint256",
          "name": "",
          "type": "uint256"
        }
      ],
      "stateMutability": "view",
      "type": "function"
    },
    {
      "inputs": [],
      "name": "goal",
      "outputs": [
        {
          "internalType": "uint256",
          "name": "",
          "type": "uint256"
        }
      ],
      "stateMutability": "view",
      "type": "function"
    },
    {
      "inputs": [],
      "name": "minimumContribution",
      "outputs": [
        {
          "internalType": "uint256",
          "name": "",
          "type": "uint256"
        }
      ],
      "stateMutability": "view",
      "type": "function"
    },
    {
      "inputs": [],
      "name": "numRequests",
      "outputs": [
        {
          "internalType": "uint256",
          "name": "",
          "type": "uint256"
        }
      ],
      "stateMutability": "view",
      "type": "function"
    },
    {
      "inputs": [],
      "name": "numberOfContributors",
      "outputs": [
        {
          "internalType": "uint256",
          "name": "",
          "type": "uint256"
        }
      ],
      "stateMutability": "view",
      "type": "function"
    },
    {
      "inputs": [],
      "name": "raisedAmount",
      "outputs": [
        {
          "internalType": "uint256",
          "name": "",
          "type": "uint256"
        }
      ],
      "stateMutability": "view",
      "type": "function"
    },
    {
      "inputs": [
        {
          "internalType": "uint256",
          "name": "",
          "type": "uint256"
        }
      ],
      "name": "requests",
      "outputs": [
        {
          "internalType": "string",
          "name": "description",
          "type": "string"
        },
        {
          "internalType": "address payable",
          "name": "recipient",
          "type": "address"
        },
        {
          "internalType": "uint256",
          "name": "value",
          "type": "uint256"
        },
        {
          "internalType": "bool",
          "name": "completed",
          "type": "bool"
        },
        {
          "internalType": "uint256",
          "name": "noOfVoters",
          "type": "uint256"
        }
      ],
      "stateMutability": "view",
      "type": "function"
    },
    {
      "stateMutability": "payable",
      "type": "receive"
    },
    {
      "inputs": [],
      "name": "contribute",
      "outputs": [],
      "stateMutability": "payable",
      "type": "function"
    },
    {
      "inputs": [],
      "name": "getBalance",
      "outputs": [
        {
          "internalType": "uint256",
          "name": "",
          "type": "uint256"
        }
      ],
      "stateMutability": "view",
      "type": "function"
    },
    {
      "inputs": [],
      "name": "refund",
      "outputs": [],
      "stateMutability": "nonpayable",
      "type": "function"
    },
    {
      "inputs": [
        {
          "internalType": "string",
          "name": "_description",
          "type": "string"
        },
        {
          "internalType": "address payable",
          "name": "_recipient",
          "type": "address"
        },
        {
          "internalType": "uint256",
          "name": "_value",
          "type": "uint256"
        }
      ],
      "name": "createRequest",
      "outputs": [],
      "stateMutability": "nonpayable",
      "type": "function"
    },
    {
      "inputs": [
        {
          "internalType": "uint256",
          "name": "_requestNo",
          "type": "uint256"
        }
      ],
      "name": "voteRequest",
      "outputs": [],
      "stateMutability": "nonpayable",
      "type": "function"
    },
    {
      "inputs": [
        {
          "internalType": "uint256",
          "name": "_requestNo",
          "type": "uint256"
        }
      ],
      "name": "makePayment",
      "outputs": [],
      "stateMutability": "nonpayable",
      "type": "function"
    }
  ],
  "bytecode": "0x608060405234801561001057600080fd5b506040516112c43803806112c48339818101604052604081101561003357600080fd5b810190808051906020019092919080519060200190929190505050670de0b6b3a7640000820260058190555080420160048190555033600160006101000a81548173ffffffffffffffffffffffffffffffffffffffff021916908373ffffffffffffffffffffffffffffffffffffffff16021790555060646003819055505050611202806100c26000396000f3fe6080604052600436106100ec5760003560e01c80635114cb521161008a5780639fb42b1f116100595780639fb42b1f146104bb578063c59ee1dc146104e6578063d7bb99ba14610511578063f851a4401461051b576100fb565b80635114cb521461033e578063590e1ae31461037957806381d12c5814610390578063937e09b114610490576100fb565b806329dcb0cf116100c657806329dcb0cf1461028257806340193883146102ad5780634377cf65146102d85780634cb6f4a514610303576100fb565b806312065fe0146101005780631b16bb5c1461012b5780631f6d49421461021d576100fb565b366100fb576100f9610572565b005b600080fd5b34801561010c57600080fd5b50610115610784565b6040518082815260200191505060405180910390f35b34801561013757600080fd5b5061021b6004803603606081101561014e57600080fd5b810190808035906020019064010000000081111561016b57600080fd5b82018360208201111561017d57600080fd5b8035906020019184600183028401116401000000008311171561019f57600080fd5b91908080601f016020809104026020016040519081016040528093929190818152602001838380828437600081840152601f19601f820116905080830192505050505050509192919290803573ffffffffffffffffffffffffffffffffffffffff1690602001909291908035906020019092919050505061078c565b005b34801561022957600080fd5b5061026c6004803603602081101561024057600080fd5b81019080803573ffffffffffffffffffffffffffffffffffffffff1690602001909291905050506109c7565b6040518082815260200191505060405180910390f35b34801561028e57600080fd5b506102976109df565b6040518082815260200191505060405180910390f35b3480156102b957600080fd5b506102c26109e5565b6040518082815260200191505060405180910390f35b3480156102e457600080fd5b506102ed6109eb565b6040518082815260200191505060405180910390f35b34801561030f57600080fd5b5061033c6004803603602081101561032657600080fd5b81019080803590602001909291905050506109f1565b005b34801561034a57600080fd5b506103776004803603602081101561036157600080fd5b8101908080359060200190929190505050610bd9565b005b34801561038557600080fd5b5061038e610e71565b005b34801561039c57600080fd5b506103c9600480360360208110156103b357600080fd5b8101908080359060200190929190505050610fb0565b60405180806020018673ffffffffffffffffffffffffffffffffffffffff1673ffffffffffffffffffffffffffffffffffffffff16815260200185815260200184151515158152602001838152602001828103825287818151815260200191508051906020019080838360005b83811015610451578082015181840152602081019050610436565b50505050905090810190601f16801561047e5780820380516001836020036101000a031916815260200191505b50965050505050505060405180910390f35b34801561049c57600080fd5b506104a56110ab565b6040518082815260200191505060405180910390f35b3480156104c757600080fd5b506104d06110b1565b6040518082815260200191505060405180910390f35b3480156104f257600080fd5b506104fb6110b7565b6040518082815260200191505060405180910390f35b610519610572565b005b34801561052757600080fd5b506105306110bd565b604051808273ffffffffffffffffffffffffffffffffffffffff1673ffffffffffffffffffffffffffffffffffffffff16815260200191505060405180910390f35b60045442106105e9576040517f08c379a00000000000000000000000000000000000000000000000000000000081526004018080602001828103825260148152602001807f646561646c696e6520686173207061737365642100000000000000000000000081525060200191505060405180910390fd5b600354341015610661576040517f08c379a000000000000000000000000000000000000000000000000000000000815260040180806020018281038252601d8152602001807f4d696e696d756d20436f6e747269627574696f6e204e6f74204d65742100000081525060200191505060405180910390fd5b60008060003373ffffffffffffffffffffffffffffffffffffffff1673ffffffffffffffffffffffffffffffffffffffff1681526020019081526020016000205414156106bb576002600081548092919060010191905055505b346000803373ffffffffffffffffffffffffffffffffffffffff1673ffffffffffffffffffffffffffffffffffffffff16815260200190815260200160002060008282540192505081905550346006600082825401925050819055507f2daf61dec57a2c194e9e87958b1a40a5c236b5e8c6041655d664ddbd16c293203334604051808373ffffffffffffffffffffffffffffffffffffffff1673ffffffffffffffffffffffffffffffffffffffff1681526020018281526020019250505060405180910390a1565b600047905090565b600160009054906101000a900473ffffffffffffffffffffffffffffffffffffffff1673ffffffffffffffffffffffffffffffffffffffff163373ffffffffffffffffffffffffffffffffffffffff1614610832576040517f08c379a00000000000000000000000000000000000000000000000000000000081526004018080602001828103825260228152602001806111ab6022913960400191505060405180910390fd5b60006007600060085481526020019081526020016000209050600860008154809291906001019190505550838160000190805190602001906108759291906110e3565b50828160010160006101000a81548173ffffffffffffffffffffffffffffffffffffffff021916908373ffffffffffffffffffffffffffffffffffffffff16021790555081816002018190555060008160030160006101000a81548160ff021916908315150217905550600081600401819055507f5392bd80651676ccaaedec1afbe841d47e369223df0ba1586110b6426ee87a3a84848460405180806020018473ffffffffffffffffffffffffffffffffffffffff1673ffffffffffffffffffffffffffffffffffffffff168152602001838152602001828103825285818151815260200191508051906020019080838360005b8381101561098557808201518184015260208101905061096a565b50505050905090810190601f1680156109b25780820380516001836020036101000a031916815260200191505b5094505050505060405180910390a150505050565b60006020528060005260406000206000915090505481565b60045481565b60055481565b60025481565b60008060003373ffffffffffffffffffffffffffffffffffffffff1673ffffffffffffffffffffffffffffffffffffffff1681526020019081526020016000205411610a88576040517f08c379a00000000000000000000000000000000000000000000000000000000081526004018080602001828103825260228152602001806111896022913960400191505060405180910390fd5b6000600760008381526020019081526020016000209050600015158160050160003373ffffffffffffffffffffffffffffffffffffffff1673ffffffffffffffffffffffffffffffffffffffff16815260200190815260200160002060009054906101000a900460ff16151514610b67576040517f08c379a00000000000000000000000000000000000000000000000000000000081526004018080602001828103825260178152602001807f596f75206861766520616c726561647920766f7465642100000000000000000081525060200191505060405180910390fd5b60018160050160003373ffffffffffffffffffffffffffffffffffffffff1673ffffffffffffffffffffffffffffffffffffffff16815260200190815260200160002060006101000a81548160ff02191690831515021790555080600401600081548092919060010191905055505050565b600160009054906101000a900473ffffffffffffffffffffffffffffffffffffffff1673ffffffffffffffffffffffffffffffffffffffff163373ffffffffffffffffffffffffffffffffffffffff1614610c7f576040517f08c379a00000000000000000000000000000000000000000000000000000000081526004018080602001828103825260228152602001806111ab6022913960400191505060405180910390fd5b6005546006541015610c9057600080fd5b6000600760008381526020019081526020016000209050600015158160030160009054906101000a900460ff16151514610d32576040517f08c379a000000000000000000000000000000000000000000000000000000000815260040180806020018281038252601e8152602001807f546865207265717565737420686173206265656e20636f6d706c65746564000081525060200191505060405180910390fd5b6002805481610d3d57fe5b0481600401541015610d4e57600080fd5b8060010160009054906101000a900473ffffffffffffffffffffffffffffffffffffffff1673ffffffffffffffffffffffffffffffffffffffff166108fc82600201549081150290604051600060405180830381858888f19350505050158015610dbc573d6000803e3d6000fd5b5060018160030160006101000a81548160ff0219169083151502179055507f516e1673e5e85c44620165259173329adda2ad25e7bb15020c732be060b5b7908160010160009054906101000a900473ffffffffffffffffffffffffffffffffffffffff168260020154604051808373ffffffffffffffffffffffffffffffffffffffff1673ffffffffffffffffffffffffffffffffffffffff1681526020018281526020019250505060405180910390a15050565b60045442118015610e855750600554600654105b610e8e57600080fd5b60008060003373ffffffffffffffffffffffffffffffffffffffff1673ffffffffffffffffffffffffffffffffffffffff1681526020019081526020016000205411610ed957600080fd5b600033905060008060003373ffffffffffffffffffffffffffffffffffffffff1673ffffffffffffffffffffffffffffffffffffffff1681526020019081526020016000205490508173ffffffffffffffffffffffffffffffffffffffff166108fc829081150290604051600060405180830381858888f19350505050158015610f67573d6000803e3d6000fd5b5060008060003373ffffffffffffffffffffffffffffffffffffffff1673ffffffffffffffffffffffffffffffffffffffff168152602001908152602001600020819055505050565b6007602052806000526040600020600091509050806000018054600181600116156101000203166002900480601f01602080910402602001604051908101604052809291908181526020018280546001816001161561010002031660029004801561105c5780601f106110315761010080835404028352916020019161105c565b820191906000526020600020905b81548152906001019060200180831161103f57829003601f168201915b5050505050908060010160009054906101000a900473ffffffffffffffffffffffffffffffffffffffff16908060020154908060030160009054906101000a900460ff16908060040154905085565b60035481565b60085481565b60065481565b600160009054906101000a900473ffffffffffffffffffffffffffffffffffffffff1681565b828054600181600116156101000203166002900490600052602060002090601f016020900481019282601f1061112457805160ff1916838001178555611152565b82800160010185558215611152579182015b82811115611151578251825591602001919060010190611136565b5b50905061115f9190611163565b5090565b61118591905b80821115611181576000816000905550600101611169565b5090565b9056fe596f75206d757374206265206120636f6e7472696275746f7220746f20766f7465214f6e6c792041646d696e2043616e2043616c6c20546869732046756e6374696f6e21a2646970667358221220c47209549b7173795575ecb2d0f8ad52a448d3deda9e52bed46e0c9dcaba1c4864736f6c63430006060033",
  "immutableReferences": {},
  "source": "// SPDX-License-Identifier: GPL-3.0\r\n\r\npragma solidity >=0.6.0 <0.9.0;\r\n\r\n\r\n\r\ncontract CrowdFunding {\r\n    \r\n    mapping(address => uint) public contributors;\r\n    \r\n    address public admin;\r\n    uint public numberOfContributors;\r\n    uint public minimumContribution;\r\n    uint public deadline;\r\n    uint public goal;\r\n    uint public raisedAmount;\r\n    \r\n    struct Request{\r\n        string description;\r\n        address payable recipient;\r\n        uint value;\r\n        bool completed;\r\n        uint noOfVoters;\r\n        mapping(address => bool) voters;\r\n    }\r\n    \r\n    event ContributeEvent(address _sender, uint _value);\r\n    event CreateRequestEvent(string _description, address _recipient, uint _value);\r\n    event MakePaymentEvent(address _recipient, uint _value);\r\n    \r\n    \r\n    mapping(uint => Request) public requests;\r\n\r\n    uint public numRequests;\r\n    \r\n    constructor(uint _goal, uint _deadline) public {\r\n        goal = _goal * (1 ether);\r\n        deadline = block.timestamp + _deadline;\r\n        admin = msg.sender;\r\n        \r\n        minimumContribution = 100 wei;\r\n    }\r\n    \r\n    \r\n\r\n    function contribute() public payable {\r\n        require(block.timestamp < deadline, \"deadline has passed!\");\r\n        require(msg.value >= minimumContribution, \"Minimum Contribution Not Met!\");\r\n        \r\n        if(contributors[msg.sender] == 0){  \r\n            numberOfContributors++;\r\n            } \r\n            \r\n        contributors[msg.sender] += msg.value;\r\n      \r\n        raisedAmount += msg.value;\r\n        emit ContributeEvent(msg.sender , msg.value);\r\n     }\r\n     \r\n    receive() payable external {\r\n        contribute();\r\n    }\r\n    \r\n    function getBalance() public view returns(uint){\r\n        return address(this).balance;\r\n    }\r\n    \r\n    // Refund Money\r\n    function refund() public {\r\n        require(block.timestamp > deadline && raisedAmount < goal);\r\n        require(contributors[msg.sender] > 0 );\r\n        \r\n        address payable recipient = payable(msg.sender);\r\n        uint value = contributors[msg.sender];\r\n        recipient.transfer(value);\r\n \r\n         contributors[msg.sender] = 0;\r\n    }\r\n    \r\n        modifier onlyAdmin() {\r\n        require(msg.sender == admin,\"Only Admin Can Call This Function!\");\r\n        _;\r\n    }\r\n    \r\n    function createRequest(string memory _description, address payable _recipient, uint _value ) public onlyAdmin{\r\n        Request storage newRequest = requests[numRequests];\r\n        numRequests++;\r\n        \r\n        newRequest.description = _description;\r\n        newRequest.recipient = _recipient;\r\n        newRequest.value = _value;\r\n        newRequest.completed = false;\r\n        newRequest.noOfVoters = 0;\r\n        \r\n        emit CreateRequestEvent(_description, _recipient, _value);\r\n        \r\n    }\r\n    \r\n    function voteRequest(uint _requestNo) public {\r\n        require(contributors[msg.sender] > 0, \"You must be a contributor to vote!\");\r\n        Request storage thisRequest = requests[_requestNo];\r\n        \r\n        require(thisRequest.voters[msg.sender] == false, \"You have already voted!\");\r\n        thisRequest.voters[msg.sender] = true;\r\n        thisRequest.noOfVoters++;\r\n    }\r\n    \r\n    function makePayment(uint _requestNo) public onlyAdmin{\r\n        require(raisedAmount >= goal);\r\n        Request storage thisRequest = requests[_requestNo];\r\n        require(thisRequest.completed == false, \"The request has been completed\");\r\n        require(thisRequest.noOfVoters >= numberOfContributors / 2); // 50% voted for yes\r\n        \r\n        thisRequest.recipient.transfer(thisRequest.value);\r\n        thisRequest.completed = true;\r\n        \r\n        emit MakePaymentEvent(thisRequest.recipient, thisRequest.value);\r\n    }\r\n}",
  "sourcePath": "C:/Users/yash/Desktop/Agam/projects/Brepper/contracts/Brepper.sol",
  "compiler": {
    "name": "solc",
    "version": "0.6.6+commit.6c089d02.Emscripten.clang"
  },
  "schemaVersion": "3.4.1",
  "updatedAt": "2021-06-24T15:40:58.053Z",
  "devdoc": {
    "methods": {}
  },
  "userdoc": {
    "methods": {}
  }
}