{
  "contractName": "CrowdFunding",
  "abi": [
    {
      "inputs": [
        {
          "internalType": "uint256",
          "name": "_goal",
          "type": "uint256"
        },
        {
          "internalType": "uint256",
          "name": "_deadline",
          "type": "uint256"
        },
        {
          "internalType": "address",
          "name": "eoa",
          "type": "address"
        }
      ],
      "stateMutability": "nonpayable",
      "type": "constructor"
    },
    {
      "anonymous": false,
      "inputs": [
        {
          "indexed": false,
          "internalType": "address",
          "name": "_sender",
          "type": "address"
        },
        {
          "indexed": false,
          "internalType": "uint256",
          "name": "_value",
          "type": "uint256"
        }
      ],
      "name": "ContributeEvent",
      "type": "event"
    },
    {
      "anonymous": false,
      "inputs": [
        {
          "indexed": false,
          "internalType": "string",
          "name": "_description",
          "type": "string"
        },
        {
          "indexed": false,
          "internalType": "address",
          "name": "_recipient",
          "type": "address"
        },
        {
          "indexed": false,
          "internalType": "uint256",
          "name": "_value",
          "type": "uint256"
        }
      ],
      "name": "fundsWithdrawn",
      "type": "event"
    },
    {
      "inputs": [],
      "name": "admin",
      "outputs": [
        {
          "internalType": "address",
          "name": "",
          "type": "address"
        }
      ],
      "stateMutability": "view",
      "type": "function"
    },
    {
      "inputs": [
        {
          "internalType": "address",
          "name": "",
          "type": "address"
        }
      ],
      "name": "contributors",
      "outputs": [
        {
          "internalType": "uint256",
          "name": "",
          "type": "uint256"
        }
      ],
      "stateMutability": "view",
      "type": "function"
    },
    {
      "inputs": [],
      "name": "deadline",
      "outputs": [
        {
          "internalType": "uint256",
          "name": "",
          "type": "uint256"
        }
      ],
      "stateMutability": "view",
      "type": "function"
    },
    {
      "inputs": [],
      "name": "goal",
      "outputs": [
        {
          "internalType": "uint256",
          "name": "",
          "type": "uint256"
        }
      ],
      "stateMutability": "view",
      "type": "function"
    },
    {
      "inputs": [],
      "name": "minimumContribution",
      "outputs": [
        {
          "internalType": "uint256",
          "name": "",
          "type": "uint256"
        }
      ],
      "stateMutability": "view",
      "type": "function"
    },
    {
      "inputs": [],
      "name": "numberOfContributors",
      "outputs": [
        {
          "internalType": "uint256",
          "name": "",
          "type": "uint256"
        }
      ],
      "stateMutability": "view",
      "type": "function"
    },
    {
      "inputs": [],
      "name": "raisedAmount",
      "outputs": [
        {
          "internalType": "uint256",
          "name": "",
          "type": "uint256"
        }
      ],
      "stateMutability": "view",
      "type": "function"
    },
    {
      "stateMutability": "payable",
      "type": "receive"
    },
    {
      "inputs": [],
      "name": "contribute",
      "outputs": [],
      "stateMutability": "payable",
      "type": "function"
    },
    {
      "inputs": [],
      "name": "getBalance",
      "outputs": [
        {
          "internalType": "uint256",
          "name": "",
          "type": "uint256"
        }
      ],
      "stateMutability": "view",
      "type": "function"
    },
    {
      "inputs": [
        {
          "internalType": "string",
          "name": "_description",
          "type": "string"
        },
        {
          "internalType": "address payable",
          "name": "_recipient",
          "type": "address"
        },
        {
          "internalType": "uint256",
          "name": "_value",
          "type": "uint256"
        }
      ],
      "name": "withdrawFunds",
      "outputs": [],
      "stateMutability": "nonpayable",
      "type": "function"
    }
  ],
  "bytecode": "0x60806040523480156200001157600080fd5b5060405162000ed938038062000ed98339818101604052810190620000379190620000e7565b670de0b6b3a7640000836200004d9190620001a0565b600581905550814262000061919062000143565b60048190555080600160006101000a81548173ffffffffffffffffffffffffffffffffffffffff021916908373ffffffffffffffffffffffffffffffffffffffff1602179055506064600381905550505050620002a7565b600081519050620000ca8162000273565b92915050565b600081519050620000e1816200028d565b92915050565b6000806000606084860312156200010357620001026200026e565b5b60006200011386828701620000d0565b93505060206200012686828701620000d0565b92505060406200013986828701620000b9565b9150509250925092565b6000620001508262000235565b91506200015d8362000235565b9250827fffffffffffffffffffffffffffffffffffffffffffffffffffffffffffffffff038211156200019557620001946200023f565b5b828201905092915050565b6000620001ad8262000235565b9150620001ba8362000235565b9250817fffffffffffffffffffffffffffffffffffffffffffffffffffffffffffffffff0483118215151615620001f657620001f56200023f565b5b828202905092915050565b60006200020e8262000215565b9050919050565b600073ffffffffffffffffffffffffffffffffffffffff82169050919050565b6000819050919050565b7f4e487b7100000000000000000000000000000000000000000000000000000000600052601160045260246000fd5b600080fd5b6200027e8162000201565b81146200028a57600080fd5b50565b620002988162000235565b8114620002a457600080fd5b50565b610c2280620002b76000396000f3fe6080604052600436106100955760003560e01c8063937e09b111610059578063937e09b114610192578063c59ee1dc146101bd578063d7bb99ba146101e8578063f077022a146101f2578063f851a4401461021b576100a4565b806312065fe0146100a95780631f6d4942146100d457806329dcb0cf14610111578063401938831461013c5780634377cf6514610167576100a4565b366100a4576100a2610246565b005b600080fd5b3480156100b557600080fd5b506100be6103d8565b6040516100cb9190610860565b60405180910390f35b3480156100e057600080fd5b506100fb60048036038101906100f69190610613565b6103e0565b6040516101089190610860565b60405180910390f35b34801561011d57600080fd5b506101266103f8565b6040516101339190610860565b60405180910390f35b34801561014857600080fd5b506101516103fe565b60405161015e9190610860565b60405180910390f35b34801561017357600080fd5b5061017c610404565b6040516101899190610860565b60405180910390f35b34801561019e57600080fd5b506101a761040a565b6040516101b49190610860565b60405180910390f35b3480156101c957600080fd5b506101d2610410565b6040516101df9190610860565b60405180910390f35b6101f0610246565b005b3480156101fe57600080fd5b5061021960048036038101906102149190610640565b610416565b005b34801561022757600080fd5b5061023061053e565b60405161023d919061077e565b60405180910390f35b600454421061028a576040517f08c379a000000000000000000000000000000000000000000000000000000000815260040161028190610840565b60405180910390fd5b6003543410156102cf576040517f08c379a00000000000000000000000000000000000000000000000000000000081526004016102c690610800565b60405180910390fd5b60008060003373ffffffffffffffffffffffffffffffffffffffff1673ffffffffffffffffffffffffffffffffffffffff16815260200190815260200160002054141561032f576002600081548092919061032990610a3a565b91905055505b346000803373ffffffffffffffffffffffffffffffffffffffff1673ffffffffffffffffffffffffffffffffffffffff168152602001908152602001600020600082825461037d91906108ed565b92505081905550346006600082825461039691906108ed565b925050819055507f2daf61dec57a2c194e9e87958b1a40a5c236b5e8c6041655d664ddbd16c2932033346040516103ce929190610799565b60405180910390a1565b600047905090565b60006020528060005260406000206000915090505481565b60045481565b60055481565b60025481565b60035481565b60065481565b600160009054906101000a900473ffffffffffffffffffffffffffffffffffffffff1673ffffffffffffffffffffffffffffffffffffffff163373ffffffffffffffffffffffffffffffffffffffff16146104a6576040517f08c379a000000000000000000000000000000000000000000000000000000000815260040161049d90610820565b60405180910390fd5b60055460065410156104b757600080fd5b8173ffffffffffffffffffffffffffffffffffffffff166108fc479081150290604051600060405180830381858888f193505050501580156104fd573d6000803e3d6000fd5b507f85c5c39717c033e98414cfad1edea5e7e6903892fbba9be641c1095176376fdc838383604051610531939291906107c2565b60405180910390a1505050565b600160009054906101000a900473ffffffffffffffffffffffffffffffffffffffff1681565b6000610577610572846108a0565b61087b565b90508281526020810184848401111561059357610592610ae6565b5b61059e8482856109c7565b509392505050565b6000813590506105b581610ba7565b92915050565b6000813590506105ca81610bbe565b92915050565b600082601f8301126105e5576105e4610ae1565b5b81356105f5848260208601610564565b91505092915050565b60008135905061060d81610bd5565b92915050565b60006020828403121561062957610628610af0565b5b6000610637848285016105a6565b91505092915050565b60008060006060848603121561065957610658610af0565b5b600084013567ffffffffffffffff81111561067757610676610aeb565b5b610683868287016105d0565b9350506020610694868287016105bb565b92505060406106a5868287016105fe565b9150509250925092565b6106b881610991565b82525050565b6106c781610943565b82525050565b60006106d8826108d1565b6106e281856108dc565b93506106f28185602086016109d6565b6106fb81610af5565b840191505092915050565b6000610713601d836108dc565b915061071e82610b06565b602082019050919050565b60006107366022836108dc565b915061074182610b2f565b604082019050919050565b60006107596014836108dc565b915061076482610b7e565b602082019050919050565b61077881610987565b82525050565b600060208201905061079360008301846106be565b92915050565b60006040820190506107ae60008301856106be565b6107bb602083018461076f565b9392505050565b600060608201905081810360008301526107dc81866106cd565b90506107eb60208301856106af565b6107f8604083018461076f565b949350505050565b6000602082019050818103600083015261081981610706565b9050919050565b6000602082019050818103600083015261083981610729565b9050919050565b600060208201905081810360008301526108598161074c565b9050919050565b6000602082019050610875600083018461076f565b92915050565b6000610885610896565b90506108918282610a09565b919050565b6000604051905090565b600067ffffffffffffffff8211156108bb576108ba610ab2565b5b6108c482610af5565b9050602081019050919050565b600081519050919050565b600082825260208201905092915050565b60006108f882610987565b915061090383610987565b9250827fffffffffffffffffffffffffffffffffffffffffffffffffffffffffffffffff0382111561093857610937610a83565b5b828201905092915050565b600061094e82610967565b9050919050565b600061096082610967565b9050919050565b600073ffffffffffffffffffffffffffffffffffffffff82169050919050565b6000819050919050565b600061099c826109a3565b9050919050565b60006109ae826109b5565b9050919050565b60006109c082610967565b9050919050565b82818337600083830152505050565b60005b838110156109f45780820151818401526020810190506109d9565b83811115610a03576000848401525b50505050565b610a1282610af5565b810181811067ffffffffffffffff82111715610a3157610a30610ab2565b5b80604052505050565b6000610a4582610987565b91507fffffffffffffffffffffffffffffffffffffffffffffffffffffffffffffffff821415610a7857610a77610a83565b5b600182019050919050565b7f4e487b7100000000000000000000000000000000000000000000000000000000600052601160045260246000fd5b7f4e487b7100000000000000000000000000000000000000000000000000000000600052604160045260246000fd5b600080fd5b600080fd5b600080fd5b600080fd5b6000601f19601f8301169050919050565b7f4d696e696d756d20436f6e747269627574696f6e204e6f74204d657421000000600082015250565b7f4f6e6c792041646d696e2043616e2043616c6c20546869732046756e6374696f60008201527f6e21000000000000000000000000000000000000000000000000000000000000602082015250565b7f646561646c696e65206861732070617373656421000000000000000000000000600082015250565b610bb081610943565b8114610bbb57600080fd5b50565b610bc781610955565b8114610bd257600080fd5b50565b610bde81610987565b8114610be957600080fd5b5056fea26469706673582212207aee06fd47523a3631a90ab8753a8d0ba1008e7dcd56c4cd145bb72ae8efb9a164736f6c63430008060033",
  "immutableReferences": {},
  "source": "// SPDX-License-Identifier: GPL-3.0\n\npragma solidity >=0.6.0 <0.9.0;\n\ncontract FundingCreator {\n    mapping(uint => CrowdFunding) public fundings;\n    uint fundingindex = 0;\n    \n    function createFunding(uint inputGoal, uint inputDeadline) public returns (uint) {\n        CrowdFunding newFunding = new CrowdFunding(inputGoal, inputDeadline, msg.sender);\n        fundingindex = fundingindex + 1;\n        fundings[fundingindex] = newFunding;\n        return fundingindex;\n    }\n\n     function getFundingIndex() public view returns (uint) {\n        return fundingindex;\n    }\n\n     function getFundingContract(uint _fundingindex) public view returns (uint) {\n        CrowdFunding funding = fundings[_fundingindex];\n        return funding.goal();\n    }\n}\n\ncontract CrowdFunding {\n    \n    mapping(address => uint) public contributors;\n    \n    address public admin;\n    uint public numberOfContributors;\n    uint public minimumContribution;\n    uint public deadline;\n    uint public goal;\n    uint public raisedAmount;\n\n    \n    event ContributeEvent(address _sender, uint _value);\n    event fundsWithdrawn(string _description, address _recipient, uint _value);\n\n    \n    constructor(uint _goal, uint _deadline, address eoa)  {\n        goal = _goal * (1 ether);\n        deadline = block.timestamp + _deadline;\n        admin = eoa;\n        \n        minimumContribution = 100 wei;\n    }\n    \n    function contribute() public payable {\n        require(block.timestamp < deadline, \"deadline has passed!\");\n        require(msg.value >= minimumContribution, \"Minimum Contribution Not Met!\");\n        \n        if(contributors[msg.sender] == 0){  \n            numberOfContributors++;\n            } \n            \n        contributors[msg.sender] += msg.value;\n      \n        raisedAmount += msg.value;\n        emit ContributeEvent(msg.sender , msg.value);\n     }\n     \n    receive() payable external {\n        contribute();\n    }\n    \n    function getBalance() public view returns(uint){\n        return address(this).balance;\n    }\n    \n\n        modifier onlyAdmin() {\n        require(msg.sender == admin,\"Only Admin Can Call This Function!\");\n        _;\n    }\n    \n    function withdrawFunds(string memory _description, address payable _recipient, uint _value ) public onlyAdmin{\n        require(raisedAmount >= goal);\n       _recipient.transfer(address(this).balance);\n        emit fundsWithdrawn(_description, _recipient, _value);\n        \n    }\n    \n}",
  "sourcePath": "/Users/humble/kripa/brepper/contracts/Brepper.sol",
  "compiler": {
    "name": "solc",
    "version": "0.8.6+commit.11564f7e.Emscripten.clang"
  },
  "schemaVersion": "3.4.1",
  "updatedAt": "2021-06-28T19:12:46.186Z",
  "devdoc": {
    "kind": "dev",
    "methods": {},
    "version": 1
  },
  "userdoc": {
    "kind": "user",
    "methods": {},
    "version": 1
  }
}