{
  "contractName": "CrowdFunding",
  "abi": [
    {
      "inputs": [
        {
          "internalType": "uint256",
          "name": "_goal",
          "type": "uint256"
        },
        {
          "internalType": "uint256",
          "name": "_deadline",
          "type": "uint256"
        },
        {
          "internalType": "address",
          "name": "eoa",
          "type": "address"
        }
      ],
      "stateMutability": "nonpayable",
      "type": "constructor"
    },
    {
      "anonymous": false,
      "inputs": [
        {
          "indexed": false,
          "internalType": "address",
          "name": "_sender",
          "type": "address"
        },
        {
          "indexed": false,
          "internalType": "uint256",
          "name": "_value",
          "type": "uint256"
        }
      ],
      "name": "ContributeEvent",
      "type": "event"
    },
    {
      "anonymous": false,
      "inputs": [
        {
          "indexed": false,
          "internalType": "uint256",
          "name": "_value",
          "type": "uint256"
        }
      ],
      "name": "fundsWithdrawn",
      "type": "event"
    },
    {
      "inputs": [],
      "name": "admin",
      "outputs": [
        {
          "internalType": "address payable",
          "name": "",
          "type": "address"
        }
      ],
      "stateMutability": "view",
      "type": "function"
    },
    {
      "inputs": [
        {
          "internalType": "address",
          "name": "",
          "type": "address"
        }
      ],
      "name": "contributors",
      "outputs": [
        {
          "internalType": "uint256",
          "name": "",
          "type": "uint256"
        }
      ],
      "stateMutability": "view",
      "type": "function"
    },
    {
      "inputs": [],
      "name": "deadline",
      "outputs": [
        {
          "internalType": "uint256",
          "name": "",
          "type": "uint256"
        }
      ],
      "stateMutability": "view",
      "type": "function"
    },
    {
      "inputs": [],
      "name": "goal",
      "outputs": [
        {
          "internalType": "uint256",
          "name": "",
          "type": "uint256"
        }
      ],
      "stateMutability": "view",
      "type": "function"
    },
    {
      "inputs": [],
      "name": "minimumContribution",
      "outputs": [
        {
          "internalType": "uint256",
          "name": "",
          "type": "uint256"
        }
      ],
      "stateMutability": "view",
      "type": "function"
    },
    {
      "inputs": [],
      "name": "numberOfContributors",
      "outputs": [
        {
          "internalType": "uint256",
          "name": "",
          "type": "uint256"
        }
      ],
      "stateMutability": "view",
      "type": "function"
    },
    {
      "inputs": [],
      "name": "raisedAmount",
      "outputs": [
        {
          "internalType": "uint256",
          "name": "",
          "type": "uint256"
        }
      ],
      "stateMutability": "view",
      "type": "function"
    },
    {
      "stateMutability": "payable",
      "type": "receive"
    },
    {
      "inputs": [],
      "name": "contribute",
      "outputs": [],
      "stateMutability": "payable",
      "type": "function"
    },
    {
      "inputs": [],
      "name": "getBalance",
      "outputs": [
        {
          "internalType": "uint256",
          "name": "",
          "type": "uint256"
        }
      ],
      "stateMutability": "view",
      "type": "function"
    },
    {
      "inputs": [
        {
          "internalType": "uint256",
          "name": "_value",
          "type": "uint256"
        }
      ],
      "name": "withdrawFunds",
      "outputs": [],
      "stateMutability": "nonpayable",
      "type": "function"
    }
  ],
  "bytecode": "0x60806040523480156200001157600080fd5b5060405162000c4738038062000c478339818101604052810190620000379190620000e7565b670de0b6b3a7640000836200004d9190620001a0565b600581905550814262000061919062000143565b60048190555080600160006101000a81548173ffffffffffffffffffffffffffffffffffffffff021916908373ffffffffffffffffffffffffffffffffffffffff1602179055506064600381905550505050620002a7565b600081519050620000ca8162000273565b92915050565b600081519050620000e1816200028d565b92915050565b6000806000606084860312156200010357620001026200026e565b5b60006200011386828701620000d0565b93505060206200012686828701620000d0565b92505060406200013986828701620000b9565b9150509250925092565b6000620001508262000235565b91506200015d8362000235565b9250827fffffffffffffffffffffffffffffffffffffffffffffffffffffffffffffffff038211156200019557620001946200023f565b5b828201905092915050565b6000620001ad8262000235565b9150620001ba8362000235565b9250817fffffffffffffffffffffffffffffffffffffffffffffffffffffffffffffffff0483118215151615620001f657620001f56200023f565b5b828202905092915050565b60006200020e8262000215565b9050919050565b600073ffffffffffffffffffffffffffffffffffffffff82169050919050565b6000819050919050565b7f4e487b7100000000000000000000000000000000000000000000000000000000600052601160045260246000fd5b600080fd5b6200027e8162000201565b81146200028a57600080fd5b50565b620002988162000235565b8114620002a457600080fd5b50565b61099080620002b76000396000f3fe6080604052600436106100955760003560e01c80634377cf65116100595780634377cf6514610190578063937e09b1146101bb578063c59ee1dc146101e6578063d7bb99ba14610211578063f851a4401461021b576100a4565b806312065fe0146100a9578063155dd5ee146100d45780631f6d4942146100fd57806329dcb0cf1461013a5780634019388314610165576100a4565b366100a4576100a2610246565b005b600080fd5b3480156100b557600080fd5b506100be6103d8565b6040516100cb919061073e565b60405180910390f35b3480156100e057600080fd5b506100fb60048036038101906100f691906105d7565b6103e0565b005b34801561010957600080fd5b50610124600480360381019061011f91906105aa565b610524565b604051610131919061073e565b60405180910390f35b34801561014657600080fd5b5061014f61053c565b60405161015c919061073e565b60405180910390f35b34801561017157600080fd5b5061017a610542565b604051610187919061073e565b60405180910390f35b34801561019c57600080fd5b506101a5610548565b6040516101b2919061073e565b60405180910390f35b3480156101c757600080fd5b506101d061054e565b6040516101dd919061073e565b60405180910390f35b3480156101f257600080fd5b506101fb610554565b604051610208919061073e565b60405180910390f35b610219610246565b005b34801561022757600080fd5b5061023061055a565b60405161023d919061069a565b60405180910390f35b600454421061028a576040517f08c379a00000000000000000000000000000000000000000000000000000000081526004016102819061071e565b60405180910390fd5b6003543410156102cf576040517f08c379a00000000000000000000000000000000000000000000000000000000081526004016102c6906106de565b60405180910390fd5b60008060003373ffffffffffffffffffffffffffffffffffffffff1673ffffffffffffffffffffffffffffffffffffffff16815260200190815260200160002054141561032f57600260008154809291906103299061080e565b91905055505b346000803373ffffffffffffffffffffffffffffffffffffffff1673ffffffffffffffffffffffffffffffffffffffff168152602001908152602001600020600082825461037d919061076a565b925050819055503460066000828254610396919061076a565b925050819055507f2daf61dec57a2c194e9e87958b1a40a5c236b5e8c6041655d664ddbd16c2932033346040516103ce9291906106b5565b60405180910390a1565b600047905090565b600160009054906101000a900473ffffffffffffffffffffffffffffffffffffffff1673ffffffffffffffffffffffffffffffffffffffff163373ffffffffffffffffffffffffffffffffffffffff1614610470576040517f08c379a0000000000000000000000000000000000000000000000000000000008152600401610467906106fe565b60405180910390fd5b600554600654101561048157600080fd5b600160009054906101000a900473ffffffffffffffffffffffffffffffffffffffff1673ffffffffffffffffffffffffffffffffffffffff166108fc479081150290604051600060405180830381858888f193505050501580156104e9573d6000803e3d6000fd5b507f1bfef580145c4435e8f8cc555d0bdfe9eef366f703955596483d8da0bfa0a90e81604051610519919061073e565b60405180910390a150565b60006020528060005260406000206000915090505481565b60045481565b60055481565b60025481565b60035481565b60065481565b600160009054906101000a900473ffffffffffffffffffffffffffffffffffffffff1681565b60008135905061058f8161092c565b92915050565b6000813590506105a481610943565b92915050565b6000602082840312156105c0576105bf610886565b5b60006105ce84828501610580565b91505092915050565b6000602082840312156105ed576105ec610886565b5b60006105fb84828501610595565b91505092915050565b61060d816107d2565b82525050565b61061c816107c0565b82525050565b600061062f601d83610759565b915061063a8261088b565b602082019050919050565b6000610652602283610759565b915061065d826108b4565b604082019050919050565b6000610675601483610759565b915061068082610903565b602082019050919050565b61069481610804565b82525050565b60006020820190506106af6000830184610604565b92915050565b60006040820190506106ca6000830185610613565b6106d7602083018461068b565b9392505050565b600060208201905081810360008301526106f781610622565b9050919050565b6000602082019050818103600083015261071781610645565b9050919050565b6000602082019050818103600083015261073781610668565b9050919050565b6000602082019050610753600083018461068b565b92915050565b600082825260208201905092915050565b600061077582610804565b915061078083610804565b9250827fffffffffffffffffffffffffffffffffffffffffffffffffffffffffffffffff038211156107b5576107b4610857565b5b828201905092915050565b60006107cb826107e4565b9050919050565b60006107dd826107e4565b9050919050565b600073ffffffffffffffffffffffffffffffffffffffff82169050919050565b6000819050919050565b600061081982610804565b91507fffffffffffffffffffffffffffffffffffffffffffffffffffffffffffffffff82141561084c5761084b610857565b5b600182019050919050565b7f4e487b7100000000000000000000000000000000000000000000000000000000600052601160045260246000fd5b600080fd5b7f4d696e696d756d20436f6e747269627574696f6e204e6f74204d657421000000600082015250565b7f4f6e6c792041646d696e2043616e2043616c6c20546869732046756e6374696f60008201527f6e21000000000000000000000000000000000000000000000000000000000000602082015250565b7f646561646c696e65206861732070617373656421000000000000000000000000600082015250565b610935816107c0565b811461094057600080fd5b50565b61094c81610804565b811461095757600080fd5b5056fea264697066735822122049703a7ad3968c4114099c524e55a710f791ea81f74c1badc7cc021cf1f1ec7b64736f6c63430008060033",
  "immutableReferences": {},
  "source": "// SPDX-License-Identifier: GPL-3.0\r\n\r\npragma solidity >=0.6.0 <0.9.0;\r\n\r\ncontract FundingCreator {\r\n    mapping(uint => CrowdFunding) public fundings;\r\n    uint fundingindex = 0;\r\n    event FundraiserCreated(uint fundraiserIndex);\r\n\r\n    function createFunding(uint inputGoal, uint inputDeadline) public {\r\n        CrowdFunding newFunding = new CrowdFunding(inputGoal, inputDeadline, msg.sender);\r\n        fundingindex = fundingindex + 1;\r\n        fundings[fundingindex] = newFunding;\r\n        emit FundraiserCreated(fundingindex);\r\n    }\r\n\r\n     function getFundingContract(uint _fundingindex) public view returns (uint) {\r\n        CrowdFunding funding = fundings[_fundingindex];\r\n        return funding.goal();\r\n    }\r\n\r\n     function getFundingContractAddress(uint _fundingindex) public view returns (address) {\r\n        CrowdFunding funding = fundings[_fundingindex];\r\n        return address(funding);\r\n    }\r\n}\r\n\r\ncontract CrowdFunding {\r\n    \r\n    mapping(address => uint) public contributors;\r\n    \r\n    address payable public admin;\r\n    uint public numberOfContributors;\r\n    uint public minimumContribution;\r\n    uint public deadline;\r\n    uint public goal;\r\n    uint public raisedAmount;\r\n\r\n    \r\n    event ContributeEvent(address _sender, uint _value);\r\n    event fundsWithdrawn( uint _value);\r\n\r\n    \r\n    constructor(uint _goal, uint _deadline, address eoa)  {\r\n        goal = _goal * (1 ether);\r\n        deadline = block.timestamp + _deadline;\r\n        admin = payable(eoa);\r\n        \r\n        minimumContribution = 100 wei;\r\n    }\r\n    \r\n    function contribute() public payable {\r\n        require(block.timestamp < deadline, \"deadline has passed!\");\r\n        require(msg.value >= minimumContribution, \"Minimum Contribution Not Met!\");\r\n        \r\n        if(contributors[msg.sender] == 0){  \r\n            numberOfContributors++;\r\n            } \r\n            \r\n        contributors[msg.sender] += msg.value;\r\n      \r\n        raisedAmount += msg.value;\r\n        emit ContributeEvent(msg.sender , msg.value);\r\n     }\r\n     \r\n    receive() payable external {\r\n        contribute();\r\n    }\r\n    \r\n    function getBalance() public view returns(uint){\r\n        return address(this).balance;\r\n    }\r\n    \r\n\r\n        modifier onlyAdmin() {\r\n        require(msg.sender == admin,\"Only Admin Can Call This Function!\");\r\n        _;\r\n    }\r\n    \r\n    function withdrawFunds(uint _value ) public onlyAdmin{\r\n        require(raisedAmount >= goal);\r\n       admin.transfer(address(this).balance);\r\n        emit fundsWithdrawn( _value);\r\n        \r\n    }\r\n    \r\n}",
  "sourcePath": "C:/Users/yash/Desktop/Agam/projects/Brepper/contracts/Brepper.sol",
  "compiler": {
    "name": "solc",
    "version": "0.8.6+commit.11564f7e.Emscripten.clang"
  },
  "schemaVersion": "3.4.1",
  "updatedAt": "2021-07-02T20:22:20.667Z",
  "devdoc": {
    "kind": "dev",
    "methods": {},
    "version": 1
  },
  "userdoc": {
    "kind": "user",
    "methods": {},
    "version": 1
  }
}