{
  "contractName": "fundingCreator",
  "abi": [
    {
      "inputs": [
        {
          "internalType": "uint256",
          "name": "",
          "type": "uint256"
        }
      ],
      "name": "fundings",
      "outputs": [
        {
          "internalType": "contract CrowdFunding",
          "name": "",
          "type": "address"
        }
      ],
      "stateMutability": "view",
      "type": "function"
    },
    {
      "inputs": [
        {
          "internalType": "uint256",
          "name": "inputGoal",
          "type": "uint256"
        },
        {
          "internalType": "uint256",
          "name": "inputDeadline",
          "type": "uint256"
        }
      ],
      "name": "createFunding",
      "outputs": [],
      "stateMutability": "nonpayable",
      "type": "function"
    }
  ],
  "bytecode": "0x608060405234801561001057600080fd5b50611ced806100206000396000f3fe608060405234801561001057600080fd5b50600436106100365760003560e01c8063795f1a581461003b578063d13cb1fb14610057575b600080fd5b610055600480360381019061005091906101b5565b610087565b005b610071600480360381019061006c919061018c565b61012b565b60405161007e919061021e565b60405180910390f35b60008282336040516100989061016a565b6100a493929190610239565b604051809103906000f0801580156100c0573d6000803e3d6000fd5b5090506000819080600181540180825580915050600190039060005260206000200160009091909190916101000a81548173ffffffffffffffffffffffffffffffffffffffff021916908373ffffffffffffffffffffffffffffffffffffffff160217905550505050565b6000818154811061013b57600080fd5b906000526020600020016000915054906101000a900473ffffffffffffffffffffffffffffffffffffffff1681565b6119d0806102e883390190565b600081359050610186816102d0565b92915050565b60006020828403121561019e57600080fd5b60006101ac84828501610177565b91505092915050565b600080604083850312156101c857600080fd5b60006101d685828601610177565b92505060206101e785828601610177565b9150509250929050565b6101fa81610270565b82525050565b610209816102ac565b82525050565b610218816102a2565b82525050565b60006020820190506102336000830184610200565b92915050565b600060608201905061024e600083018661020f565b61025b602083018561020f565b61026860408301846101f1565b949350505050565b600061027b82610282565b9050919050565b600073ffffffffffffffffffffffffffffffffffffffff82169050919050565b6000819050919050565b60006102b7826102be565b9050919050565b60006102c982610282565b9050919050565b6102d9816102a2565b81146102e457600080fd5b5056fe60806040523480156200001157600080fd5b50604051620019d0380380620019d08339818101604052810190620000379190620000e7565b670de0b6b3a7640000836200004d91906200019a565b60058190555081426200006191906200013d565b60048190555080600160006101000a81548173ffffffffffffffffffffffffffffffffffffffff021916908373ffffffffffffffffffffffffffffffffffffffff16021790555060646003819055505050506200029c565b600081519050620000ca8162000268565b92915050565b600081519050620000e18162000282565b92915050565b600080600060608486031215620000fd57600080fd5b60006200010d86828701620000d0565b93505060206200012086828701620000d0565b92505060406200013386828701620000b9565b9150509250925092565b60006200014a826200022f565b915062000157836200022f565b9250827fffffffffffffffffffffffffffffffffffffffffffffffffffffffffffffffff038211156200018f576200018e62000239565b5b828201905092915050565b6000620001a7826200022f565b9150620001b4836200022f565b9250817fffffffffffffffffffffffffffffffffffffffffffffffffffffffffffffffff0483118215151615620001f057620001ef62000239565b5b828202905092915050565b600062000208826200020f565b9050919050565b600073ffffffffffffffffffffffffffffffffffffffff82169050919050565b6000819050919050565b7f4e487b7100000000000000000000000000000000000000000000000000000000600052601160045260246000fd5b6200027381620001fb565b81146200027f57600080fd5b50565b6200028d816200022f565b81146200029957600080fd5b50565b61172480620002ac6000396000f3fe6080604052600436106100ec5760003560e01c80635114cb521161008a5780639fb42b1f116100595780639fb42b1f146102e7578063c59ee1dc14610312578063d7bb99ba1461033d578063f851a44014610347576100fb565b80635114cb521461023b578063590e1ae31461026457806381d12c581461027b578063937e09b1146102bc576100fb565b806329dcb0cf116100c657806329dcb0cf1461019157806340193883146101bc5780634377cf65146101e75780634cb6f4a514610212576100fb565b806312065fe0146101005780631b16bb5c1461012b5780631f6d494214610154576100fb565b366100fb576100f9610372565b005b600080fd5b34801561010c57600080fd5b50610115610504565b6040516101229190611208565b60405180910390f35b34801561013757600080fd5b50610152600480360381019061014d9190610e5d565b61050c565b005b34801561016057600080fd5b5061017b60048036038101906101769190610e34565b61069a565b6040516101889190611208565b60405180910390f35b34801561019d57600080fd5b506101a66106b2565b6040516101b39190611208565b60405180910390f35b3480156101c857600080fd5b506101d16106b8565b6040516101de9190611208565b60405180910390f35b3480156101f357600080fd5b506101fc6106be565b6040516102099190611208565b60405180910390f35b34801561021e57600080fd5b5061023960048036038101906102349190610ec4565b6106c4565b005b34801561024757600080fd5b50610262600480360381019061025d9190610ec4565b610869565b005b34801561027057600080fd5b50610279610a88565b005b34801561028757600080fd5b506102a2600480360381019061029d9190610ec4565b610bc7565b6040516102b39594939291906110ee565b60405180910390f35b3480156102c857600080fd5b506102d1610cb2565b6040516102de9190611208565b60405180910390f35b3480156102f357600080fd5b506102fc610cb8565b6040516103099190611208565b60405180910390f35b34801561031e57600080fd5b50610327610cbe565b6040516103349190611208565b60405180910390f35b610345610372565b005b34801561035357600080fd5b5061035c610cc4565b6040516103699190611043565b60405180910390f35b60045442106103b6576040517f08c379a00000000000000000000000000000000000000000000000000000000081526004016103ad906111e8565b60405180910390fd5b6003543410156103fb576040517f08c379a00000000000000000000000000000000000000000000000000000000081526004016103f290611168565b60405180910390fd5b60008060003373ffffffffffffffffffffffffffffffffffffffff1673ffffffffffffffffffffffffffffffffffffffff16815260200190815260200160002054141561045b576002600081548092919061045590611451565b91905055505b346000803373ffffffffffffffffffffffffffffffffffffffff1673ffffffffffffffffffffffffffffffffffffffff16815260200190815260200160002060008282546104a99190611295565b9250508190555034600660008282546104c29190611295565b925050819055507f2daf61dec57a2c194e9e87958b1a40a5c236b5e8c6041655d664ddbd16c2932033346040516104fa929190611087565b60405180910390a1565b600047905090565b600160009054906101000a900473ffffffffffffffffffffffffffffffffffffffff1673ffffffffffffffffffffffffffffffffffffffff163373ffffffffffffffffffffffffffffffffffffffff161461059c576040517f08c379a000000000000000000000000000000000000000000000000000000000815260040161059390611188565b60405180910390fd5b60006007600060085481526020019081526020016000209050600860008154809291906105c890611451565b9190505550838160000190805190602001906105e5929190610cea565b50828160010160006101000a81548173ffffffffffffffffffffffffffffffffffffffff021916908373ffffffffffffffffffffffffffffffffffffffff16021790555081816002018190555060008160030160006101000a81548160ff021916908315150217905550600081600401819055507f5392bd80651676ccaaedec1afbe841d47e369223df0ba1586110b6426ee87a3a84848460405161068c939291906110b0565b60405180910390a150505050565b60006020528060005260406000206000915090505481565b60045481565b60055481565b60025481565b60008060003373ffffffffffffffffffffffffffffffffffffffff1673ffffffffffffffffffffffffffffffffffffffff1681526020019081526020016000205411610745576040517f08c379a000000000000000000000000000000000000000000000000000000000815260040161073c90611148565b60405180910390fd5b6000600760008381526020019081526020016000209050600015158160050160003373ffffffffffffffffffffffffffffffffffffffff1673ffffffffffffffffffffffffffffffffffffffff16815260200190815260200160002060009054906101000a900460ff161515146107f1576040517f08c379a00000000000000000000000000000000000000000000000000000000081526004016107e8906111a8565b60405180910390fd5b60018160050160003373ffffffffffffffffffffffffffffffffffffffff1673ffffffffffffffffffffffffffffffffffffffff16815260200190815260200160002060006101000a81548160ff02191690831515021790555080600401600081548092919061086090611451565b91905055505050565b600160009054906101000a900473ffffffffffffffffffffffffffffffffffffffff1673ffffffffffffffffffffffffffffffffffffffff163373ffffffffffffffffffffffffffffffffffffffff16146108f9576040517f08c379a00000000000000000000000000000000000000000000000000000000081526004016108f090611188565b60405180910390fd5b600554600654101561090a57600080fd5b6000600760008381526020019081526020016000209050600015158160030160009054906101000a900460ff16151514610979576040517f08c379a0000000000000000000000000000000000000000000000000000000008152600401610970906111c8565b60405180910390fd5b6002805461098791906112eb565b8160040154101561099757600080fd5b8060010160009054906101000a900473ffffffffffffffffffffffffffffffffffffffff1673ffffffffffffffffffffffffffffffffffffffff166108fc82600201549081150290604051600060405180830381858888f19350505050158015610a05573d6000803e3d6000fd5b5060018160030160006101000a81548160ff0219169083151502179055507f516e1673e5e85c44620165259173329adda2ad25e7bb15020c732be060b5b7908160010160009054906101000a900473ffffffffffffffffffffffffffffffffffffffff168260020154604051610a7c92919061105e565b60405180910390a15050565b60045442118015610a9c5750600554600654105b610aa557600080fd5b60008060003373ffffffffffffffffffffffffffffffffffffffff1673ffffffffffffffffffffffffffffffffffffffff1681526020019081526020016000205411610af057600080fd5b600033905060008060003373ffffffffffffffffffffffffffffffffffffffff1673ffffffffffffffffffffffffffffffffffffffff1681526020019081526020016000205490508173ffffffffffffffffffffffffffffffffffffffff166108fc829081150290604051600060405180830381858888f19350505050158015610b7e573d6000803e3d6000fd5b5060008060003373ffffffffffffffffffffffffffffffffffffffff1673ffffffffffffffffffffffffffffffffffffffff168152602001908152602001600020819055505050565b6007602052806000526040600020600091509050806000018054610bea906113ee565b80601f0160208091040260200160405190810160405280929190818152602001828054610c16906113ee565b8015610c635780601f10610c3857610100808354040283529160200191610c63565b820191906000526020600020905b815481529060010190602001808311610c4657829003601f168201915b5050505050908060010160009054906101000a900473ffffffffffffffffffffffffffffffffffffffff16908060020154908060030160009054906101000a900460ff16908060040154905085565b60035481565b60085481565b60065481565b600160009054906101000a900473ffffffffffffffffffffffffffffffffffffffff1681565b828054610cf6906113ee565b90600052602060002090601f016020900481019282610d185760008555610d5f565b82601f10610d3157805160ff1916838001178555610d5f565b82800160010185558215610d5f579182015b82811115610d5e578251825591602001919060010190610d43565b5b509050610d6c9190610d70565b5090565b5b80821115610d89576000816000905550600101610d71565b5090565b6000610da0610d9b84611248565b611223565b905082815260208101848484011115610db857600080fd5b610dc38482856113ac565b509392505050565b600081359050610dda816116a9565b92915050565b600081359050610def816116c0565b92915050565b600082601f830112610e0657600080fd5b8135610e16848260208601610d8d565b91505092915050565b600081359050610e2e816116d7565b92915050565b600060208284031215610e4657600080fd5b6000610e5484828501610dcb565b91505092915050565b600080600060608486031215610e7257600080fd5b600084013567ffffffffffffffff811115610e8c57600080fd5b610e9886828701610df5565b9350506020610ea986828701610de0565b9250506040610eba86828701610e1f565b9150509250925092565b600060208284031215610ed657600080fd5b6000610ee484828501610e1f565b91505092915050565b610ef681611376565b82525050565b610f058161132e565b82525050565b610f148161131c565b82525050565b610f2381611340565b82525050565b6000610f3482611279565b610f3e8185611284565b9350610f4e8185602086016113bb565b610f5781611556565b840191505092915050565b6000610f6f602283611284565b9150610f7a82611567565b604082019050919050565b6000610f92601d83611284565b9150610f9d826115b6565b602082019050919050565b6000610fb5602283611284565b9150610fc0826115df565b604082019050919050565b6000610fd8601783611284565b9150610fe38261162e565b602082019050919050565b6000610ffb601e83611284565b915061100682611657565b602082019050919050565b600061101e601483611284565b915061102982611680565b602082019050919050565b61103d8161136c565b82525050565b60006020820190506110586000830184610f0b565b92915050565b60006040820190506110736000830185610eed565b6110806020830184611034565b9392505050565b600060408201905061109c6000830185610f0b565b6110a96020830184611034565b9392505050565b600060608201905081810360008301526110ca8186610f29565b90506110d96020830185610eed565b6110e66040830184611034565b949350505050565b600060a08201905081810360008301526111088188610f29565b90506111176020830187610efc565b6111246040830186611034565b6111316060830185610f1a565b61113e6080830184611034565b9695505050505050565b6000602082019050818103600083015261116181610f62565b9050919050565b6000602082019050818103600083015261118181610f85565b9050919050565b600060208201905081810360008301526111a181610fa8565b9050919050565b600060208201905081810360008301526111c181610fcb565b9050919050565b600060208201905081810360008301526111e181610fee565b9050919050565b6000602082019050818103600083015261120181611011565b9050919050565b600060208201905061121d6000830184611034565b92915050565b600061122d61123e565b90506112398282611420565b919050565b6000604051905090565b600067ffffffffffffffff82111561126357611262611527565b5b61126c82611556565b9050602081019050919050565b600081519050919050565b600082825260208201905092915050565b60006112a08261136c565b91506112ab8361136c565b9250827fffffffffffffffffffffffffffffffffffffffffffffffffffffffffffffffff038211156112e0576112df61149a565b5b828201905092915050565b60006112f68261136c565b91506113018361136c565b925082611311576113106114c9565b5b828204905092915050565b60006113278261134c565b9050919050565b60006113398261134c565b9050919050565b60008115159050919050565b600073ffffffffffffffffffffffffffffffffffffffff82169050919050565b6000819050919050565b600061138182611388565b9050919050565b60006113938261139a565b9050919050565b60006113a58261134c565b9050919050565b82818337600083830152505050565b60005b838110156113d95780820151818401526020810190506113be565b838111156113e8576000848401525b50505050565b6000600282049050600182168061140657607f821691505b6020821081141561141a576114196114f8565b5b50919050565b61142982611556565b810181811067ffffffffffffffff8211171561144857611447611527565b5b80604052505050565b600061145c8261136c565b91507fffffffffffffffffffffffffffffffffffffffffffffffffffffffffffffffff82141561148f5761148e61149a565b5b600182019050919050565b7f4e487b7100000000000000000000000000000000000000000000000000000000600052601160045260246000fd5b7f4e487b7100000000000000000000000000000000000000000000000000000000600052601260045260246000fd5b7f4e487b7100000000000000000000000000000000000000000000000000000000600052602260045260246000fd5b7f4e487b7100000000000000000000000000000000000000000000000000000000600052604160045260246000fd5b6000601f19601f8301169050919050565b7f596f75206d757374206265206120636f6e7472696275746f7220746f20766f7460008201527f6521000000000000000000000000000000000000000000000000000000000000602082015250565b7f4d696e696d756d20436f6e747269627574696f6e204e6f74204d657421000000600082015250565b7f4f6e6c792041646d696e2043616e2043616c6c20546869732046756e6374696f60008201527f6e21000000000000000000000000000000000000000000000000000000000000602082015250565b7f596f75206861766520616c726561647920766f74656421000000000000000000600082015250565b7f546865207265717565737420686173206265656e20636f6d706c657465640000600082015250565b7f646561646c696e65206861732070617373656421000000000000000000000000600082015250565b6116b28161131c565b81146116bd57600080fd5b50565b6116c98161132e565b81146116d457600080fd5b50565b6116e08161136c565b81146116eb57600080fd5b5056fea2646970667358221220aa59c332a9ce594b5bd06df7b5d06a62f51f6a6f3db1026884beef0a0a95424464736f6c63430008010033a2646970667358221220a1e3a4c1af8e8e6ee6cf99952373ce132b96f476512527a497715ece9fd5c69964736f6c63430008010033",
  "immutableReferences": {},
  "source": "// SPDX-License-Identifier: GPL-3.0\r\n\r\npragma solidity >=0.6.0 <0.9.0;\r\n\r\n\r\ncontract fundingCreator{\r\n    CrowdFunding[] public fundings;\r\n    \r\n    function createFunding(uint inputGoal, uint inputDeadline) public {\r\n        CrowdFunding newFunding = new CrowdFunding(inputGoal , inputDeadline ,msg.sender);\r\n        fundings.push(newFunding);\r\n    }\r\n}\r\n\r\ncontract CrowdFunding {\r\n    \r\n    mapping(address => uint) public contributors;\r\n    \r\n    address public admin;\r\n    uint public numberOfContributors;\r\n    uint public minimumContribution;\r\n    uint public deadline;\r\n    uint public goal;\r\n    uint public raisedAmount;\r\n    \r\n    struct Request{\r\n        string description;\r\n        address payable recipient;\r\n        uint value;\r\n        bool completed;\r\n        uint noOfVoters;\r\n        mapping(address => bool) voters;\r\n    }\r\n    \r\n    event ContributeEvent(address _sender, uint _value);\r\n    event CreateRequestEvent(string _description, address _recipient, uint _value);\r\n    event MakePaymentEvent(address _recipient, uint _value);\r\n    \r\n    \r\n    mapping(uint => Request) public requests;\r\n\r\n    uint public numRequests;\r\n    \r\n    constructor(uint _goal, uint _deadline, address eoa) {\r\n        goal = _goal * (1 ether);\r\n        deadline = block.timestamp + _deadline;\r\n        admin = eoa;\r\n        \r\n        minimumContribution = 100 wei;\r\n    }\r\n    \r\n    \r\n\r\n    function contribute() public payable {\r\n        require(block.timestamp < deadline, \"deadline has passed!\");\r\n        require(msg.value >= minimumContribution, \"Minimum Contribution Not Met!\");\r\n        \r\n        if(contributors[msg.sender] == 0){  \r\n            numberOfContributors++;\r\n            } \r\n            \r\n        contributors[msg.sender] += msg.value;\r\n      \r\n        raisedAmount += msg.value;\r\n        emit ContributeEvent(msg.sender , msg.value);\r\n     }\r\n     \r\n    receive() payable external {\r\n        contribute();\r\n    }\r\n    \r\n    function getBalance() public view returns(uint){\r\n        return address(this).balance;\r\n    }\r\n    \r\n    // Refund Money\r\n    function refund() public {\r\n        require(block.timestamp > deadline && raisedAmount < goal);\r\n        require(contributors[msg.sender] > 0 );\r\n        \r\n        address payable recipient = payable(msg.sender);\r\n        uint value = contributors[msg.sender];\r\n        recipient.transfer(value);\r\n \r\n         contributors[msg.sender] = 0;\r\n    }\r\n    \r\n        modifier onlyAdmin() {\r\n        require(msg.sender == admin,\"Only Admin Can Call This Function!\");\r\n        _;\r\n    }\r\n    \r\n    function createRequest(string memory _description, address payable _recipient, uint _value ) public onlyAdmin{\r\n        Request storage newRequest = requests[numRequests];\r\n        numRequests++;\r\n        \r\n        newRequest.description = _description;\r\n        newRequest.recipient = _recipient;\r\n        newRequest.value = _value;\r\n        newRequest.completed = false;\r\n        newRequest.noOfVoters = 0;\r\n        \r\n        emit CreateRequestEvent(_description, _recipient, _value);\r\n        \r\n    }\r\n    \r\n    function voteRequest(uint _requestNo) public {\r\n        require(contributors[msg.sender] > 0, \"You must be a contributor to vote!\");\r\n        Request storage thisRequest = requests[_requestNo];\r\n        \r\n        require(thisRequest.voters[msg.sender] == false, \"You have already voted!\");\r\n        thisRequest.voters[msg.sender] = true;\r\n        thisRequest.noOfVoters++;\r\n    }\r\n    \r\n    function makePayment(uint _requestNo) public onlyAdmin{\r\n        require(raisedAmount >= goal);\r\n        Request storage thisRequest = requests[_requestNo];\r\n        require(thisRequest.completed == false, \"The request has been completed\");\r\n        require(thisRequest.noOfVoters >= numberOfContributors / 2); // 50% voted for yes\r\n        \r\n        thisRequest.recipient.transfer(thisRequest.value);\r\n        thisRequest.completed = true;\r\n        \r\n        emit MakePaymentEvent(thisRequest.recipient, thisRequest.value);\r\n    }\r\n}",
  "sourcePath": "C:/Users/yash/Desktop/Agam/projects/Brepper/contracts/Brepper.sol",
  "compiler": {
    "name": "solc",
    "version": "0.8.1+commit.df193b15.Emscripten.clang"
  },
  "schemaVersion": "3.4.1",
  "updatedAt": "2021-06-22T08:41:15.966Z",
  "devdoc": {
    "kind": "dev",
    "methods": {},
    "version": 1
  },
  "userdoc": {
    "kind": "user",
    "methods": {},
    "version": 1
  }
}